:020000040800F2
:1000000090060020090100082D0100082F010008BA
:1000100033010008370100083B0100080000000020
:100020000000000000000000000000003F01000888
:10003000410100080000000043010008950300088A
:100040002301000823010008230100082301000800
:1000500023010008230100082301000823010008F0
:1000600023010008230100082301000823010008E0
:1000700023010008230100082301000823010008D0
:1000800023010008230100082301000823010008C0
:1000900023010008230100082301000823010008B0
:1000A00023010008230100082301000823010008A0
:1000B0007504000891040008AD040008230100083D
:1000C000230100082301000823010008D9080008C3
:1000D0002301000815060008430600082301000854
:1000E000230100082301000823010008DFF814D0D1
:1000F00002F0E8FF02F056FF00480047892E000892
:1001000002F089FF90060020064880470648004715
:10011000FEE7FEE7FEE7FEE7FEE7FEE7FEE7FEE7B7
:10012000FEE7FEE793020008ED000008704700BFFD
:10013000FEE700BFFEE700BFFEE700BFFEE7704737
:100140007047704710B5044614494868214600F0CE
:1001500064FB10BD7047704710B5147804B900BF38
:1001600000BF10BD10B50446204603F059F80CA09E
:1001700003F036FA10BD10B504460BA003F030FAB8
:100180004FF47A7000F048F910BD7047704710B511
:1001900004464FF4A06000F03FFD10BD7400002045
:1001A000696E69742E0D0A0072756E6E696E672E27
:1001B0002E0D0A000CB50020019000906C480068DC
:1001C00040F480306A49086000BF6948006800F464
:1001D000003000900198401C0190009818B90198D7
:1001E000B0F5A06FF1D16248006800F4003010B1A2
:1001F0000120009001E0002000900098012843D1E8
:100200005C48006840F010005A49086008460068E1
:1002100020F0030008600846006840F00200086013
:10022000534840685249486008464068486008465C
:10023000406840F4806048600846406820F47C10C4
:1002400048600846406840F4E81048600846006886
:1002500040F08070086000BF4548006800F0007002
:100260000028F9D04248406820F003004049486027
:100270000846406840F00200486000BF3C484068C3
:1002800000F00C000828F9D10CBD10B5FFF792FF63
:1002900010BD10B53648006840F0010034490860D0
:1002A00008464068344908403149486008460068BB
:1002B000324908402E4908600846006820F4802032
:1002C00008600846406820F4FE0048604FF41F00B4
:1002D0008860FFF7DAFF4FF000602949086010BD21
:1002E00010B5002100200022214B5B6803F00C01B7
:1002F00021B1042906D0082928D107E0214B224C3E
:10030000236027E01F4B204C236023E0184B5B68E1
:1003100003F47010164B5B6803F48032022303EB86
:10032000904022B9194B4343174C23600DE0104B0A
:100330005B6803F4003323B1144B4343124C236036
:1003400003E0104B4343104C236003E00D4B0E4C75
:10035000236000BF00BF064B5B68C3F303130C4C64
:10036000E15C094B1B68CB40074C236010BD0000CB
:1003700000100240002002400000FFF8FFFFF6FEE0
:1003800008ED00E000127A000000002000093D00A6
:100390000400002010B5334802684068521C40F148
:1003A000000030490A6048602F48006810B12E48AC
:1003B0000068804710BDF0B502460C462A4804602C
:1003C00000BF1146B1F1807F01D301201DE021F073
:1003D0007F40401E4FF0E023586158170F2300283C
:1003E00007DA1D072F0E214D00F00F06361FAF55FF
:1003F00003E01D072E0E1E4D2E5400BF00204FF0AF
:10040000E02398610720186100200028D9D1F0BDB1
:100410001449086849687047002107E042F6E06126
:1004200000BF0A1EA1F1010399B2FAD1021EA0F188
:10043000010398B2F2D17047002106E00A2100BF03
:100440000A1EA1F1010399B2FAD1021EA0F1010323
:1004500098B2F3D1704710B50446A0B2FFF7DCFFA5
:1004600010BD0000180000202000002018ED00E062
:1004700000E400E010B50121880702F0CAFA30B1AB
:100480000121880702F0D6FA5D480068804710BD58
:1004900010B501215B4802F0BCFA30B10121594886
:1004A00002F0C8FA58480068804710BD10B5012115
:1004B000564802F0AEFA30B10121544802F0BAFABF
:1004C00053480068804710BD2DE9FE4380460C4626
:1004D00015461E460A9F204601F0A2FBADF80450C7
:1004E000ADF80060ADF806700020ADF80200694676
:1004F000204601F069FC0121204602F087FA012222
:100500001146204601F0D7FF0121204601F0B8FF37
:10051000BDE8FE832DE9F84380460C4615461E468D
:100520001C27B4F1804F07D036484042204428B100
:10053000B0F5806F06D103E01C2703E01D2701E022
:100540001E2700BF00BF8DF800708DF801508DF898
:10055000026001208DF80300684600F062FBBDE8F0
:10056000F88370B506460C460125B4F1804F07D0DC
:1005700024484042204428B1B0F5806F06D103E002
:10058000012503E0022501E0042500BF00BF012191
:10059000284601F068F970BD2DE9F84F07460D4671
:1005A00014461E46DDE90CABDDE90A89B5F1804F42
:1005B00007D014484042284430B1B0F5806F09D1CB
:1005C00005E00F48046005E00F48046002E01048B1
:1005D000046000BF00BF29463846FFF7C2FF5346FC
:1005E0004A4629463846FFF795FF43463246294694
:1005F0003846CDF800B0FFF767FFBDE8F88F000080
:1006000024000020000400402800002000080040D2
:100610002C00002010B5002440F22551A94802F01A
:10062000B7FB01280CD1A74802F048FB044640F272
:100630002551A44802F0ECFB2046A34909688847ED
:1006400010BD10B5002440F22551A04802F0A0FBD7
:1006500001280CD19D4802F031FB044640F225519F
:100660009A4802F0D5FB204699490968884710BD91
:10067000002101804180818070477FB504460D468E
:1006800000952088ADF804006088ADF80600A088C9
:10069000ADF808000020ADF80C000C20ADF80A0001
:1006A000A07910B1012822D110E06946854802F0F6
:1006B00008FA0121834802F090FAE07928B101227A
:1006C00040F225517F4802F094FA10E069467F48D5
:1006D00002F0F7F901217D4802F07FFAE07928B1B4
:1006E000012240F22551794802F083FA00BF00BF91
:1006F0007FBD38B50446A07910B1012808D103E0C8
:1007000025208DF8000003E026208DF8000000BFB2
:1007100000BF01208DF801008DF802008DF8030064
:10072000684600F07EFA38BD38B50446A07910B1AD
:10073000012832D119E04FF40070ADF80000182004
:100740008DF8030003208DF802006946614800F02F
:10075000BFFB4FF48060ADF8000004208DF803006B
:1007600069465C4800F0B4FB17E00420ADF80000D7
:1007700018208DF8030003208DF8020069465548C3
:1007800000F0A6FB0820ADF8000004208DF803005F
:100790006946504800F09CFB00BF00BF38BD10B553
:1007A0000446A07910B101280FD105E0012144F2DF
:1007B000040001F04BF808E00121042001F046F8A4
:1007C0000121480401F04FF800BF00BF10BD2DE922
:1007D000F04104460F4615461E46A571E6712046B7
:1007E000FFF7DDFF2046FFF79FFFE07910B12046BD
:1007F000FFF77FFF39462046FFF73FFFBDE8F08156
:10080000827912B1012A06D102E02F4A116002E07A
:100810002F4A116000BF00BF704770B504460D46F7
:10082000A07910B1012818D10BE02946254802F023
:1008300041FA00BF8021234802F0AAFA0028F9D02B
:100840000BE02946214802F035FA00BF80211F48FD
:1008500002F09EFA0028F9D000BF00BF70BD2DE95C
:10086000F04107460D461646002404E0295D38464F
:10087000FFF7D3FF641CB442F8DBBDE8F0812DE93B
:10088000F04107460D461646002404E0295D38462F
:10089000FFF7C3FF641CB442F8DBBDE8F0812DE92B
:1008A000F04107460D461646002406E035F81410C0
:1008B0003846FFF7B2FF601C84B2B442F6DBBDE8F5
:1008C000F08100000038014030000020004400406A
:1008D000340000200008014010B50121CB4801F090
:1008E00068F910BD81730022028042804FF40072CB
:1008F00082801022C28000220281072242810022CF
:100900008281704710B586B00446A07B20B94FF4B1
:100910008270ADF8060002E00020ADF8060000206D
:10092000ADF80400A089ADF808002088ADF80A00F1
:100930006088ADF80C00A088ADF80E00E088ADF836
:1009400010002089ADF812006089ADF8140001A9EB
:10095000AE4801F005F8A07B012804D101226021F6
:10096000AA4801F0BAF80121A84801F09EF806B0A3
:1009700010BD38B50446A07B01280DD123208DF889
:10098000000001208DF801008DF802008DF80300B1
:10099000684600F046F900BF38BD10B50446102186
:1009A0009B4800F042FB10BD38B5044603208DF88B
:1009B0000200A07B38BB2020ADF8000018208DF885
:1009C00003006946924800F083FA4020ADF8000029
:1009D00004208DF8030069468D4800F079FA8020E4
:1009E000ADF8000018208DF803006946884800F033
:1009F0006FFA1020ADF800008DF8030069468448B6
:100A000000F066FA27E02020ADF8000004208DF801
:100A1000030069467E4800F05BFA8020ADF80000D4
:100A200004208DF803006946794800F051FA40200F
:100A3000ADF8000018208DF803006946744800F0F6
:100A400047FA1020ADF8000004208DF80300694635
:100A50006F4800F03DFA2046FFF79FFF38BD10B504
:100A600004460121042000F0F1FE0121080300F0FA
:100A7000EDFE10BD10B504462046FFF7F0FF2046FE
:100A8000FFF792FF2046FFF774FF2046FFF73AFF7B
:100A900010BD604A1160704710B5044610215C48D3
:100AA00000F0C5FA10BD70B505460C4600BF022126
:100AB000564801F07EF80028F9D02146534801F04D
:100AC00025F870BD10B5044600BF01214F4801F064
:100AD00070F80028F9D04D4801F01AF8C0B210BDE6
:100AE00070B506460D46002405E0601CC4B2C82C53
:100AF00001DD002070BD0221444801F05AF80028B1
:100B0000F3D02946414801F001F8002405E0601CBB
:100B1000C4B2C82C01DD0020ECE701213B4801F004
:100B200048F80028F3D0394800F0F2FFC0B2E1E7FE
:100B300070B504460D4629462046FFF7B4FF20460F
:100B4000FFF7C0FF70BD2DE9F04105460E46144683
:100B500031462846FFF7ECFF074621462846FFF7B7
:100B6000E7FF3846BDE8F08170B504460D462946DA
:100B70002046FFF7DDFFFF212046FFF7D9FF06469D
:100B8000304670BD2DE9F0470746884615461E469B
:100B900041463846FFF7CCFF8146002404E0295D3A
:100BA0003846FFF7C5FF641CB442F8DB4846BDE891
:100BB000F0872DE9F0470746884615461E46414610
:100BC0003846FFF7B5FF8146002405E0FF2138468F
:100BD000FFF7AEFF2855641CB442F7DB4846BDE87A
:100BE000F0872DE9F04780460D4616461F46002443
:100BF00007E0295D4046FFF79BFF814606F8049019
:100C0000641CBC42F5DBBDE8F08700000030014009
:100C1000000801403800002031490143314A116089
:100C2000704770B5002100230F22C47804B32D4C07
:100C3000246804F4E064C4F5E064210AC1F104030B
:100C4000CA40447804FA03F184781440214309012E
:100C5000254C0678A155047804F01F050124AC400A
:100C600005786D11AD0005F1E025C5F8004109E0FA
:100C7000047804F01F050124AC401C4D0678761161
:100C800045F8264070BD1A4A0A400243154B1B1F07
:100C90001A60704739B1134A121D12680243114B92
:100CA0001B1D1A6006E00F4A121D126882430D4B8D
:100CB0001B1D1A607047042808D14FF0E021096914
:100CC00041F004014FF0E022116107E04FF0E02114
:100CD000096921F004014FF0E02211617047000022
:100CE0000000FA050CED00E000E400E080E100E027
:100CF00080FFFF1F002044490860091D0860091D8E
:100D00000860091D086041483F4914310860704778
:100D100000213D498279002A3AD00A4612680368C8
:100D20009A430B461A600A1D126803689A430B1D0A
:100D30001A60027911440A6803681A430A60324A49
:100D40000832126803689A432F4B08331A601A1D41
:100D5000126803689A432C4B0C331A604279102AAC
:100D60000ED11A1F126803681A43274B08331A6002
:100D70001A1D126803681A43234B0C331A600DE0E6
:100D80002149427911440A6803681A430A6005E060
:100D9000027911440A6803689A430A607047002187
:100DA000016001710C214171002181717047164968
:100DB000103109680143144A10321160704701462E
:100DC0000020114A143212680A400AB1012000E0E2
:100DD000002070470C49143108607047014600201C
:100DE0000022094B1B6803EA0102074B14331B68FE
:100DF0000B4013B10AB1012000E000207047024906
:100E0000143108607047000000040140FFFF0F002C
:100E100010B50446CC48844208D10121042000F0DA
:100E20002FFD0021042000F02BFD46E0C74884423E
:100E300008D10121082000F023FD0021082000F046
:100E40001FFD3AE0C248844208D10121102000F081
:100E500017FD0021102000F013FD2EE0BD48844254
:100E600008D10121202000F00BFD0021202000F0FE
:100E700007FD22E0B848844208D10121402000F05B
:100E8000FFFC0021402000F0FBFC16E0B348844248
:100E900008D10121802000F0F3FC0021802000F027
:100EA000EFFC0AE0AE48844207D10121801500F032
:100EB000E7FC0021A01500F0E3FC10BD10B50121F6
:100EC000084600F0DDFC0021012000F0D9FC10BD37
:100ED0002DE9F041024600250026002000230024D1
:100EE000002791F803C00CF00F0591F803C00CF037
:100EF000100CBCF1000F03D091F802C04CEA0505BC
:100F000091F800C0BCF1000F31D0146800202BE034
:100F10004FF0010C0CFA00F3B1F800C00CEA030624
:100F20009E4220D183004FF00F0C0CFA03F7BC4314
:100F300005FA03FC4CEA040491F803C0BCF1280F45
:100F400006D14FF0010C0CFA00FCC2F814C00AE004
:100F500091F803C0BCF1480F05D14FF0010C0CFA19
:100F600000FCC2F810C0401C0828D1D31460B1F8AE
:100F700000C0BCF1FF0F34DD546800202EE000F10A
:100F8000080C4FF0010808FA0CF3B1F800C00CEAA5
:100F900003069E4221D183004FF00F0C0CFA03F799
:100FA000BC4305FA03FC4CEA040491F803C0BCF10D
:100FB000280F05D100F1080C08FA0CF8C2F81480CB
:100FC00091F803C0BCF1480F07D100F1080C4FF0B5
:100FD000010808FA0CF8C2F81080401C0828CED38B
:100FE0005460BDE8F0814FF6FF71018002218170ED
:100FF0000421C17070470246002093680B400BB17A
:10100000012000E0002070470146886880B27047E8
:1010100002460020D3680B400BB1012000E0002005
:1010200070470146C86880B27047016170474161EE
:1010300070470AB1016100E041617047C1607047CB
:101040004FF480320A4382618161826182698269E0
:10105000704702460020434B18684FF680731840D3
:1010600040EA021008433F4B186070473E49C86190
:101070007047F0B50A46002300240021002500F047
:101080000046B6F1004F02D1364EF16901E0354E0F
:101090007168C0F3034583B200F44016B6F5401FF3
:1010A00008D121F070612F4E766826F070662D4FC2
:1010B0007E6012E000F48016B6F5801F06D103268C
:1010C00006FA05F4A14341F0706106E0460D3601D1
:1010D00003FA06F6B14341F0706122B1460D3601C4
:1010E00003FA06F6314300F00046B6F1004F02D194
:1010F0001C4EF16101E01B4E7160F0BD30B5002265
:101100008B071C0F0F2303FA04F2164B08338C10C5
:1011100053F824309343134C08348D1044F8253091
:1011200023468C1053F824308C07240F00FA04F463
:1011300023430C4C08348D1044F8253030BD0A4947
:10114000DC3108607047000000080140000C0140DD
:10115000001001400014014000180140001C014033
:1011600000200140000001400000204210B504466C
:10117000F748844209D10121480500F08EFB002187
:101180004FF4001000F089FB08E00121880500F011
:1011900084FB00214FF4800000F07FFB10BD2DE99F
:1011A000F04385B004460D460026B1460427DFF81B
:1011B000A483A6884FF6C0700640684600F0D9FAAE
:1011C000DDF80880E448B8FBF0F01FFA80F946EA41
:1011D0000906A68020884FF6FE7108402080002670
:1011E000DE49286888420CD828684000B8FBF0F037
:1011F00087B2042F00DA04273E4309F1010020845E
:1012000027E0E8884BF6FF71884206D1286800EB9A
:101210004000B8FBF0F087B209E0286800EBC0019D
:1012200001EB0010B8FBF0F087B247F48047C7F33A
:101230000B0008B947F0010747F4004006434FF49C
:10124000967009FB00F04FF47A7190FBF1F0401CAE
:101250002084A683208840F00100208026884FF655
:10126000F5300640A8886989084306432680A88986
:1012700029890843208105B0BDE8F08341F2883117
:101280000160002181804BF6FF71C1800021018146
:1012900041814FF480418181704721B1028842F041
:1012A0000102028004E002884FF6FE731A400280B9
:1012B000704721B1828842F40062828004E0828813
:1012C0004FF2FF731A408280704721B1828842F446
:1012D0008052828004E082884EF6FF731A4082803A
:1012E000704721B1028842F48072028004E00288D3
:1012F0004FF6FF631A400280704721B1028842F422
:101300000072028004E002884FF6FF531A40028008
:10131000704721B1028842F48062028004E00288B2
:101320004FF6FF331A40028070470A460021818938
:101330004FF60173194002F0FE0319438181704793
:1013400021B1828942F00102828104E082894FF654
:10135000FE731A408281704721B1028842F0400238
:10136000028004E002884FF6BF731A400280704783
:101370001AB183880B43838002E083888B43838088
:101380007047018270470146088AC0B2704712B1A7
:1013900041F0010102E04FF6FE73194001827047EF
:1013A00008B5024600200090009200980844009082
:1013B0000098008808BD21B1028842F400420280F2
:1013C00003E00288C2F30E0202807047B1F5006F9D
:1013D00004D1028842F40062028004E002884FF2E5
:1013E000FF731A4002807047B1F5005F04D1028894
:1013F00042F40052028004E002884DF6FF731A4066
:101400000280704721B1028842F48052028004E0D9
:1014100002884EF6FF731A4002807047B1F5006FE4
:1014200004D1028842F40062028004E002884FF294
:10143000FF731A400280704721B1028842F02002F7
:10144000028004E002884FF6DF731A400280704782
:101450000146088B0012704721B1028842F0100249
:10146000028004E002884FF6EF731A400280704752
:1014700021B9028842F08002028004E002884FF61F
:101480007F731A4002807047B1F5804F05D0828B80
:101490004BF6FF731A40828303E0828B42F4804252
:1014A0008283704770B50246002400250023002087
:1014B000958A138B1B0445EA030626F07F4404EA51
:1014C00001068E4201D1012000E0002070BD10B560
:1014D00001460020002300228B8A0A8B120443EA73
:1014E000020424F07F4010BD0CB50246002000230A
:1014F0000193009300920B0F019321F07F41019B18
:101500001BB1009B1433009303E0090C009B1833BC
:101510000093009B1B680B400BB1012000E00020F2
:101520000CBD002221F07F42D3438382704730B547
:10153000024600200023948801F0E06504EA154388
:1015400021F07F41948A0C4054B14BB1012008E056
:101550000054004000127A0040420F00A0860100B3
:10156000002030BD002221F07F42D34383827047A8
:10157000DF48006840F00100DD4908600846406827
:10158000DC490840DA49486008460068DA49084002
:10159000D74908600846006820F4802008600846A3
:1015A000406820F4FE0048604FF41F0088607047D8
:1015B000CF49096821F48031CD4A1160114609688C
:1015C00021F480211160B0F5803F03D0B0F5802F69
:1015D0000ED106E0C649096841F48031C44A116061
:1015E00007E0C349096841F4A021C14A116000E045
:1015F00000BF00BF704710B5014600220023002045
:101600004A11012A02D1BA4C236806E0022A02D10B
:10161000B74C236A01E0B64C636A01F01F02012453
:1016200094401C400CB1012000E0002010BD38B5F2
:10163000002000900024002500BF3120FFF7DBFFD1
:1016400005460098401C00900098B0F5A06F01D0AE
:10165000002DF2D03120FFF7CEFF08B1012400E0C9
:101660000024204638BD01460020A14A106820F021
:10167000F80040EAC10010607047A0490860704758
:10168000024600209A4B586820F47C1042EA01037D
:101690001843974B58607047984908667047014651
:1016A0000020934A506820F00300084350607047C0
:1016B0008F48406800F00C007047014600208C4ABB
:1016C000506820F0F0000843506070470146002049
:1016D000874A506820F4E060084350607047014634
:1016E0000020834A506820F4605040EAC1005060F6
:1016F000704729B17E4A527A02437D4B5A7204E008
:101700007B4A527A82437A4B5A7270477B49D8316E
:101710000860704701460020754A506820F4404038
:101720000843506070470021714A20321170704A9E
:1017300082F82010012802D004280AD104E00121F7
:101740006B4A2032117005E00521694A2032117080
:1017500000E000BF00BF70476949086070476449F6
:10176000096A0143624A1162704765494439086059
:10177000704730B500210022002400235C4D6D68C5
:1017800005F00C0121B1042905D0082923D105E079
:101790005C4D056022E05B4D05601FE0544D6D68B7
:1017A00005F47012524D6D6805F48034022505EB86
:1017B00092421CB9544D554305600BE04C4D6D6889
:1017C00005F400351DB1504D5543056002E04D4D07
:1017D0005543056002E04B4D056000BF00BF444D1E
:1017E0006D6805F0F0010909484D6B5C0568DD4046
:1017F00045603F4D6D6805F4E061090A434D6B5C3F
:101800004568DD4085603A4D6D6805F46051C90A50
:101810003E4D6B5C4568DD40C560354D6D6805F437
:101820004041890B3A4D6B5CC568B5FBF3F505612A
:1018300030BD29B12E4A526902432D4B5A6104E052
:101840002B4A526982432A4B5A61704729B1284A70
:1018500092690243264B9A6104E0254A92698243C9
:10186000234B9A61704729B1214AD2690243204B28
:10187000DA6104E01E4AD26982431D4BDA61704787
:1018800029B11B4AD2680243194BDA6004E0184AB6
:10189000D2688243164BDA60704729B1144A126944
:1018A0000243134B1A6104E0114A12698243104B40
:1018B0001A61704712494039086070470F49C8647F
:1018C00070470B49C87170470948406A40F0807002
:1018D00007494862704701460020054A92680A405D
:1018E0000AB1012000E0002070470149887270476A
:1018F000001002400000FFF8FFFFF6FE0000424229
:101900008004424200127A0000093D003C000020A1
:101910004C00002010B50446BE48844208D1012185
:101920008014FFF7ADFF0021A014FFF7A9FF16E018
:10193000B948844208D101210014FFF7AEFF00210D
:101940002014FFF7AAFF0AE0B448844207D101211E
:10195000C013FFF7A2FF0021E013FFF79EFF10BDA9
:1019600010B50022028802F441520B884C882343B0
:101970008C882343CC8823430C8923434C892343FD
:101980008C892343CC8923431A430280838B4FF2F3
:10199000FF74234083830B8A038210BD2DE9F04F2F
:1019A00085B005460C464FF0000902274FF00008AD
:1019B0004FF0010B0026B246A88B4FF240010840C1
:1019C000A88302202884B5F81C90A068022801D1C1
:1019D00000BF38E0A08810B94FF0010B01E04FF0D4
:1019E000020B8D48854200D100E000BF6846FFF73A
:1019F000C0FEDDF800A0E088B0F5007F0AD14FEA14
:101A00001A2000EB80004000A168B0FBF1F0401DFF
:101A100086B20BE04FEA4B10BAFBF0F000EB80000F
:101A20004000A168B0FBF1F0401D86B20A20B6FB71
:101A3000F0F606F00108A6EB0800C0F34F074FF6DA
:101A4000FF7000EA0828022F01DBFF2F02DD0227CA
:101A50004FF00008E08840EA080038432884A08856
:101A6000A1890843618808432188084340F4006045
:101A700040EA0909A5F81C9005B0BDE8F08F0021E7
:101A8000018041808180C180018141818181C1814A
:101A90000721018270470021018041808180C1803F
:101AA0000221816000218181704721B1028842F0CA
:101AB0004002028004E002884FF6BF731A400280A1
:101AC000704721B1828B42F48062828304E0828B72
:101AD0004FF6FF331A408283704730B5002400234D
:101AE0000C110125A540ABB21AB185881D43858034
:101AF00002E085889D43858030BD1AB183880B4301
:101B0000838002E083888B438380704781817047A4
:101B10000146888970474FF6FF62914204D00288DF
:101B200042F48072028004E002884FF6FF631A409C
:101B30000280704721B1828842F00402828004E072
:101B400082884FF6FB731A408280704702884FF2FA
:101B5000FF731A40028002880A430280704701889E
:101B600041F480510180704721B1028842F4005253
:101B7000028004E002884DF6FF731A40028070472D
:101B800002460020012901D0108B00E0908A7047A6
:101B90000146088A7047B1F5804F04D1028842F4AB
:101BA0008042028004E002884BF6FF731A400280F4
:101BB00070470246002013890B400BB1012000E062
:101BC00000207047CA4302817047F0B502460020EA
:101BD00000240023002501F00F070126BE40B4B207
:101BE0000B1101269E40B3B2968806EA03051689BA
:101BF000264016B10DB1012000E00020F0BD10B567
:101C0000002201F00F040123A3409AB2D3430381C1
:101C100010BD00000030014000380040003C004092
:101C200010B50446FE48844208D10121C014FFF7D4
:101C300027FE0021E014FFF723FEC4E0B4F1804F3B
:101C400008D101210846FFF728FE00210120FFF7F7
:101C500024FEB8E0F348844208D101210220FFF7B6
:101C60001CFE00210220FFF718FEACE0EE48844283
:101C700008D101210420FFF710FE00210420FFF706
:101C80000CFEA0E0E948844208D101210820FFF7BA
:101C900004FE00210820FFF700FE94E0E44884429F
:101CA00008D101211020FFF7F8FD00211020FFF7D7
:101CB000F4FD88E0DF48844208D101212020FFF7AD
:101CC000ECFD00212020FFF7E8FD7CE0DA488442AB
:101CD00008D101214014FFF7D3FD00216014FFF764
:101CE000CFFD70E0D548844209D10121C804FFF737
:101CF000C7FD00214FF40020FFF7C2FD63E0D0488C
:101D0000844209D101210805FFF7BAFD00214FF4F3
:101D10008010FFF7B5FD56E0CA48844209D1012181
:101D20004805FFF7ADFD00214FF40010FFF7A8FDB7
:101D300049E0C548844208D101214020FFF7ADFDAC
:101D400000214020FFF7A9FD3DE0C048844208D1B2
:101D500001218020FFF7A1FD00218020FFF79DFDDC
:101D600031E0BB48844208D101218015FFF795FD81
:101D70000021A015FFF791FD25E0B648844209D166
:101D800001210804FFF77CFD00214FF48030FFF7AC
:101D900077FD18E0B048844209D101214804FFF7DB
:101DA0006FFD00214FF40030FFF76AFD0BE0AB48F8
:101DB000844208D101218804FFF762FD00214FF41D
:101DC0008020FFF75DFD10BD00220288944B9842F1
:101DD0000ED0994B98420BD0B0F1804F08D0914B68
:101DE000984205D0904B984202D0904B984204D133
:101DF0004FF68F731A404B881A438D4B984207D089
:101E00008C4B984204D04FF6FF431A40CB881A43BC
:101E100002808B8883850B880385814B98420BD089
:101E2000854B984208D08B4B984205D08A4B9842FC
:101E300002D08A4B984201D10B7A03860123838218
:101E4000704770B5002400220023058C4FF6FE7603
:101E500035400584028C8388048B4FF68F752C40A7
:101E6000B51E2C400D882C43751E2A400D892A432F
:101E70004D882A436A4DA8420BD06F4DA84208D026
:101E8000744DA84205D0744DA84202D0734DA842AB
:101E900013D14FF6F7752A404D892A434FF6FB754B
:101EA0002A408D882A434FF6FF652B404FF6FF5599
:101EB0002B408D892B43CD892B4383800483CD8890
:101EC0008586028470BD70B5002400220023058C35
:101ED0004FF6EF7635400584028C8388048B48F6F4
:101EE000FF752C404FF6FF452C400D884FF6FF76CE
:101EF00006EA05252C434FF6DF752A400D8906EAD0
:101F000005152A434D8806EA05152A43444DA84283
:101F100002D0494DA8421DD14FF67F752A404D8908
:101F20004FF6FF7606EA05152A434FF6BF752A409D
:101F30008D8806EA05152A434FF6FF352B404FF2F0
:101F4000FF752B408D8906EA85052B43CD8906EA6E
:101F500085052B4383800483CD880587028470BD6B
:101F600070B5002400220023058C4FF6FF66354033
:101F70000584028C8388848B4FF68F752C404FF636
:101F8000FC752C400D882C434FF6FF552A400D89D7
:101F90004FF6FF7606EA05252A434D8806EA052511
:101FA0002A431F4DA84202D0234DA8421DD14FF213
:101FB000FF752A404D894FF6FF7606EA05252A432C
:101FC0004FF6FF352A408D8806EA05252A434EF64E
:101FD000FF752B404DF6FF752B408D8906EA0515E0
:101FE0002B43CD8906EA05152B4383808483CD8856
:101FF0008587028470BD70B5002200230024058C03
:102000004EF6FF7635400584038C8488828B48F633
:10201000FF752A404FF6FF452A400D8820E000005A
:10202000002C01400004004000080040000C00406B
:10203000001000400014004000340140004C0140FA
:10204000005001400054014000180040001C0040B6
:102050000020004000400140004401400048014091
:102060004FF6FF7606EA05252A434DF6FF752B400D
:102070000D8906EA05352B434D8806EA05352B43C5
:10208000FA4DA84202D0FA4DA84208D14BF6FF758E
:102090002C408D894FF6FF7606EA85152C43848007
:1020A0008283CD88A0F84050038470BD828B4FF2AC
:1020B000FF331A408283828B4FF6FF7303EA0123BA
:1020C0001A4382837047F0B50C4615460022002162
:1020D0000026078C4EF6FF7C07EA0C070784828BEC
:1020E000018C4FF6FF7707EA043640F6FF473A4087
:1020F0004FF6FF7707EA05273A434FF6FF7707EADF
:1021000003373A43D94FB8420ED0D94FB8420BD01B
:10211000B0F1804F08D0D74FB84205D0D64FB84263
:1021200002D0D64FB84206D14DF6FF77394046F47B
:102130008057394305E047F6FF57394044F480574C
:10214000394382830184F0BD828B4FF6F3731A40CA
:102150008283828B0A4382837047F0B50C46154612
:10216000002200210026078C4FF6FF6C07EA0C07BF
:102170000784828B018C4FF6FF7707EA04264FF61F
:102180000C773A404FF6FF7707EA03172F433A439D
:10219000B64FB8420ED0B64FB8420BD0B0F1804F18
:1021A00008D0B44FB84205D0B34FB84202D0B34FB5
:1021B000B84206D14FF6FF57394046F4807739438D
:1021C00005E04FF2FF57394044F48077394382836A
:1021D0000184F0BD028B4FF2FF331A400283028B61
:1021E0004FF6FF7303EA01231A4302837047F0B5E9
:1021F0000C461546002200210026078C4FF6EF7C86
:1022000007EA0C070784028B018C4FF6FF7707EA79
:10221000041640F6FF473A404FF6FF7707EA0337C8
:102220003A434FF6FF7707EA05273A438F4FB84204
:102230000ED08F4FB8420BD0B0F1804F08D08D4FE9
:10224000B84205D08C4FB84202D08C4FB84206D16C
:102250004FF6DF77394046F01007394305E04FF677
:102260005F77394044F01007394302830184F0BDA1
:10227000028B4FF6F3731A400283028B0A430283E8
:102280007047F0B50C46154600220021068C4FF62B
:10229000FE773E400684028B018C4FF60C7632406E
:1022A0007E1C06EA03162E433243704EB0420ED017
:1022B0006F4EB0420BD0B0F1804F08D06D4EB0429F
:1022C00005D06D4EB04202D06C4EB04206D14FF6F2
:1022D000FD76314044F00106314305E04FF6F576D6
:1022E000314044F00106314302830184F0BD70B5F2
:1022F00005460C465D4885420ED05D4885420BD0B0
:10230000B5F1804F08D05B48854205D05A488542D8
:1023100002D05A48854200D100E000BF208850B961
:102320002389A28861882846FFF7ABFFE188284609
:10233000FFF79EFF25E0208804280AD12389A28880
:1023400061882846FFF753FFE1882846FFF742FFE0
:1023500017E0208808280AD12389A28861882846A6
:10236000FFF7FBFEE1882846FFF7EEFE09E0238930
:10237000A28861882846FFF7A6FEE1882846FFF775
:1023800095FE70BD2DE9F04105460C46002601275B
:10239000608808B9022600E00026A088012801D143
:1023A000022700E001272088A0B92389A28861883C
:1023B0002846FFF766FFE1882846FFF759FF238983
:1023C0003A4631462846FFF712FFE1882846FFF7D4
:1023D00001FF13E02389A28861882846FFF707FFE1
:1023E000E1882846FFF7F6FE23893A46314628461B
:1023F000FFF747FFE1882846FFF73AFFBDE8F08185
:102400000A884B881A438B881A43CB881A430B8956
:102410001A434B891A438B891A43A0F8442070470A
:102420004FF6FF71818000210180C18041800172DF
:1024300070470021018041808180C18001814181FC
:102440008181C1817047002101804180012181800B
:102450000021C1800181704700210180418081807D
:10246000C18001814181818170470000002C0140C1
:10247000003401400004004000080040000C00400F
:1024800021B1028842F00102028004E002884FF686
:10249000FE731A400280704731B1B0F8442042F414
:1024A0000042A0F8442005E0B0F84420C2F30E0238
:1024B000A0F8442070471AB183890B43838102E05E
:1024C00083898B43838170478182704741EA02038D
:1024D000A0F8483070471AB183890B43838102E02A
:1024E00083898B438381704701894FF6F8721140CD
:1024F000018170470A46002101894FF68F73194008
:1025000011430181704730B504460D4629462046E7
:10251000FFF7F0FF208940F00700208130BD2DE952
:10252000F04104460D4616461F46602D06D13B4637
:10253000012231462046FFF75AFE05E03B460122C4
:1025400031462046FFF79DFE29462046FFF7D2FF81
:10255000208940F007002081BDE8F08130B50C46AD
:1025600000210189C9B24FF6FF7505EA032515431D
:1025700025432943018130BD2DE9F04105460E4632
:1025800017469846002443463A4631462846FFF708
:10259000E5FF2C894FF6F870044044F007044FF62D
:1025A0008F70044044F070042C81BDE8F081F0B5D8
:1025B00004460D4616461F463B46324629462046EF
:1025C000FFF7CCFF208940F480402081F0BD0185D9
:1025D000828270470A46002101884FF68F731940A6
:1025E000114301807047F0B50C4615461E46002188
:1025F000002200230189028B038C4FF6F8773940C3
:1026000021434FF6FC473A4040F201173A434FF658
:10261000DD773B404FF6FF7707EA06172F433B4332
:10262000018102830384F0BD0A460021018B4FF62D
:102630008F7319401143018370470A460021018BB3
:1026400048F6FF7319404FF6FF7303EA022319435C
:10265000018370470A460021818B4FF68F73194022
:102660001143818370470A460021818B48F6FF732E
:1026700019404FF6FF7303EA022319438183704721
:1026800021B1028842F08002028004E002884FF605
:102690007F731A400280704721B1828842F00402A1
:1026A000828004E082884FF6FB731A408280704774
:1026B00021B1828842F00802828004E082884FF6CD
:1026C000F7731A408280704721B1828842F001027C
:1026D000828004E082884FF6FE731A408280704741
:1026E0000A460021018B4FF6F7731940114301830D
:1026F00070470A460021018B4FF2FF7319404FF6D5
:10270000FF7303EA02231943018370470A4600213D
:10271000818B4FF6F77319401143818370470A4646
:102720000021818B4FF2FF7319404FF6FF7303EACC
:1027300002231943818370470A460021018B4FF61B
:10274000FB7319401143018370470A460021018B36
:102750004FF6FF3319404FF6FF7303EA0223194384
:10276000018370470A460021818B4FF6FB731940A5
:102770001143818370470A460021818B4FF6FF3356
:1027800019404FF6FF7303EA022319438183704710
:102790000A460021018B4FF67F73194011430183D4
:1027A00070470A460021018BC1F30E014FF6FF73FB
:1027B00003EA02231943018370470A460021818BF3
:1027C0004FF67F7319401143818370470A460021F9
:1027D000818BC1F30E014FF6FF7303EA0223194305
:1027E000818370470A460021018C4FF6FD73194022
:1027F0001143018470470A460021018C4FF6F7739C
:1028000019401143018470470A460021018C4FF69C
:10281000DF7319404FF6FF7303EA02131943018473
:1028200070470A460021018C4FF67F7319404FF61E
:10283000FF7303EA02131943018470470A4600211B
:10284000018C4FF6FF5319404FF6FF7303EA022342
:102850001943018470470A460021018C4FF2FF732F
:1028600019404FF6FF7303EA0223194301847047AE
:102870000A460021018C4DF6FF7319404FF6FF7395
:1028800003EA023319430184704730B50023012461
:102890008C40A3B2048C9C430484048C02FA01F59E
:1028A000ADB22C43048430BD30B5002304248C40E9
:1028B000A3B2048C9C430484048C02FA01F5ADB2EB
:1028C0002C43048430BD70B5034600200024184614
:1028D000183001258D40ACB21D8CA5431D8409B173
:1028E000082909D100EB6100056825F07005056035
:1028F0000568154305600EE00D1FC5F34E0528441D
:10290000056825F4E045056005684FF6FF7606EAA0
:1029100002263543056070BD21B1028842F00202F3
:10292000028004E002884FF6FD731A40028070476F
:1029300021B1028842F00402028004E002884FF6CE
:10294000FB731A400280704721B1828842F08002F6
:10295000828004E082884FF67F731A40828070473D
:1029600002884FF6F7731A40028002880A430280F9
:10297000704782884FF68F731A40828082880A439C
:102980008280704702894FF6F8731A4002810289EB
:102990000A430281704702894FF67F731A40028111
:1029A00002890A430281704781847047818570479C
:1029B000818670470187704781877047A0F8401073
:1029C000704702884FF6FF431A40028002880A438C
:1029D000028070470146888E70470146088F704715
:1029E0000146888F70470146B1F8400070470146A4
:1029F000888C70470146088D704702460020138A74
:102A00000B400BB1012000E000207047CA43028256
:102A1000704730B50246002000230024158A05EADD
:102A20000103958905EA010413B10CB1012000E00E
:102A3000002030BDCA4302827047000010B5044632
:102A4000FB48844209D101218803FEF719FF0021C8
:102A50004FF48040FEF714FF32E0F648844209D17B
:102A600001214804FEF719FF00214FF40030FEF762
:102A700014FF25E0F048844209D101218804FEF7C3
:102A80000CFF00214FF48020FEF707FF18E0EB4811
:102A9000844209D10121C804FEF7FFFE00214FF452
:102AA0000020FEF7FAFE0BE0E548844208D1012140
:102AB0000805FEF7F2FE00214FF48010FEF7EDFE50
:102AC00010BD2DE9F04786B005460E460024A2460B
:102AD00000BFA1460027B08900B100BF2F462C8A55
:102AE0004CF6FF700440F08804432C82AC894EF60B
:102AF000F3100440B08831890843718908430443C6
:102B0000AC81AC8A4FF6FF400440B0890443AC82EC
:102B100001A8FEF72EFEC648874202D1DDF810A0BC
:102B200001E0DDF80CA0A88900F4004040B10AEBF8
:102B3000CA0000EB0A1031684900B0FBF1F807E069
:102B40000AEBCA0000EB0A1031688900B0FBF1F80B
:102B50006420B8FBF0F004012009642101FB108916
:102B6000A88900F4004040B1322000EBC900B0FB5E
:102B7000F1F000F00700044308E0322000EB0910F8
:102B80006421B0FBF1F000F00F0004432C8106B08B
:102B9000BDE8F0874FF41651016000218180C180AB
:102BA00001810C21418100218181704710B50246CD
:102BB0000020108A4FF2FF0318400B884C882343F3
:102BC0008C882343CC8823431843108210BD0021F6
:102BD000018041808180C180704721B1828942F4A7
:102BE0000052828104E082894DF6FF731A4082818F
:102BF0007047F0B50346002400260025002040F66B
:102C00006A17B94200D100BF1846C1F3421401F05F
:102C10001F06012707FA06F5012C01D10C3004E04C
:102C2000022C01D1103000E014301AB107682F4394
:102C3000076002E00768AF430760F0BD1AB1838AFE
:102C40000B43838202E0838A8B4383827047028A2C
:102C50004FF6F0731A400282028A0A4302827047DA
:102C600082894FF2FF731A40828182890A438281EE
:102C7000704721B1828942F00202828104E0828998
:102C80004FF6FD731A4082817047028A4FF6DF7358
:102C90001A400282028A0A430282704721B1028AE4
:102CA00042F48042028204E0028A4BF6FF731A402B
:102CB00002827047C1F3080282807047014688880B
:102CC000C0F308007047818941F00101818170479C
:102CD000028BD2B20283028B42EA01220283704746
:102CE000028B02F47F420283028B0A430283704705
:102CF00021B1828A42F02002828204E0828A4FF669
:102D0000DF731A408282704721B1828A42F010023A
:102D1000828204E0828A4FF6EF731A408282704703
:102D200021B1828A42F00802828204E0828A4FF650
:102D3000F7731A408282704721B1828942F40042BF
:102D4000828103E08289C2F30E028281704721B141
:102D5000828A42F40062828204E0828A4FF2FF7328
:102D60001A4082827047828A4FF6FB731A40828231
:102D7000828A0A438282704721B1828A42F002022B
:102D8000828204E0828A4FF6FD731A408282704785
:102D900002460020B1F5007F00D100BF13880B4030
:102DA0000BB1012000E00020704701F40072B2F581
:102DB000007F00D100BFCA430280704770B5024651
:102DC000002400230025002040F66A16B14200D1FD
:102DD00000BFC1F3421501F01F03012606FA03F3F9
:102DE000012D02D19689334006E0022D02D1168AC8
:102DF000334001E0968A33400C12012606FA04F4AF
:102E00001688344013B10CB1012000E0002070BDE1
:102E100010B50022002340F66A14A14200D100BF81
:102E20000A1201249440A3B2DC43048010BD0000C8
:102E3000003801400044004000480040004C004081
:102E40000050004070B504460D46E1B21B4A506880
:102E5000FDF7E3FC204670BD70B504460D46AAB2EE
:102E6000164948682146FDF70AFD70BD70B5044655
:102E7000204600F08FF885B210492A46486821465E
:102E8000FDF7EDFC70BD70471420FDF7C5FA0B4847
:102E9000FDF768F902E00948FDF76DF9FBE710B5A9
:102EA0000648074901600021017500BF0549044635
:102EB000054A0160054900F085F810BD7400002046
:102EC000FC3600081037000800000008E93200084E
:102ED0000EB50C20002100910B461022CDE9011007
:102EE0005102274800F014FB0EBD70B504460D4694
:102EF0002448007820B9012022490870FFF7E8FF34
:102F0000002610E04FF400511D4800F047FB284612
:102F1000FDF782FA4FF40051194800F0F1FA284603
:102F2000FDF77AFA761CA642ECDB70BD10B51548A9
:102F3000007820B9012013490870FFF7C9FF4FF44A
:102F400000510F4800F02AFB10BD10B50D48007865
:102F500020B901200B490870FFF7BAFF4FF4005168
:102F6000074800F0CDFA10BD10B5054806490160CC
:102F700000BF0446054A064900F024F810BD0000D1
:102F80005400002050000020001001400000000804
:102F9000AD350008421C10F8011B0029FBD1801A36
:102FA0007047000070B5054C054D03E020682044D3
:102FB0008047241DAC42F9D170BD00003C370008A9
:102FC000443700082DE9F041074615460E4610200B
:102FD00000F05AFB04000AD06760C4E9026500F003
:102FE0000BF80168216004600020BDE8F081012039
:102FF000FBE700F031B80000004870475C0000209B
:10300000034870470248001D011F8860001D70477B
:103010006000002070472DE9F0410646FFF7ECFF05
:103020008046454613E016B1E068B0420ED12068F4
:103030002860D4E90101D8F800708847204600F0E4
:10304000FBFAD8F80000B842EBD100E025462C6826
:10305000002CE8D1BDE8F08110B500F00EF8016950
:1030600019B100220261884701E080688047AFF310
:103070000080000010B5AFF3008070B5FFF7C2FF0D
:1030800004680546A4B9202000F0FEFA040011D01F
:10309000094900202C60C4E900010849A16020739F
:1030A000206160610649A06109B100F01EF8E0618D
:1030B000204670BDAFF300800000000075300008AE
:1030C00000000000064C074D06E0E06840F00103F8
:1030D00094E8070098471034AC42F6D3FDF70AF89D
:1030E0001C3700083C370008704710B5882000F0F6
:1030F000CBFA002801D00021017010BD802902D830
:1031000008B1017809B100207047012100F8081BBF
:10311000704718B100F10802914201D000207047B9
:1031200000210170704700000146087E10B101289F
:1031300004D101E0024870470248FCE70020FAE7AA
:1031400000540040005800402DE9FF4104460E465F
:10315000154626762046FFF7E7FF0746008840F42D
:10316000004038802046FFF7DFFF0746008820F444
:103170000040388000BF01210820FEF767FB207E59
:1031800010B101280AD104E001214805FEF76BFBCC
:1031900004E001218805FEF766FB00BF00BF00BF09
:1031A00000BF207E10B1012809D103E0C020ADF896
:1031B0000C0004E04FF44060ADF80C0000BF00BF0D
:1031C00003208DF80E001C208DF80F0003A9134872
:1031D000FDF77EFE00BF00BF0020ADF804004FF4F5
:1031E0008060ADF80A002088ADF806006088ADF870
:1031F0000C00ADF80850606800902046FFF794FF7F
:1032000007466946FDF7CBFF2046FFF78DFF0746CF
:103210000121FEF742F800BFBDE8FF81000C01402C
:103220002DE9F0410446206801682046884720685F
:1032300041682046884720688168204688470820E2
:1032400000F0BAF90646FDF713FA0646606001235E
:1032500000224FF4E1316068FDF7B9FA1E49606859
:10326000FDF7CEFA082000F0A7F90646FDF700FAB0
:103270000646A06001231A464FF4E131A068FDF72D
:10328000A6FA1649A068FDF7BBFA102000F094F9E1
:1032900007460021FDF726FB0746E0601049E0687D
:1032A000FDF7F7FBE068FDF7E5FB1C2000F084F973
:1032B00005464BF6FF7101804FF48041418009497A
:1032C000416000BF2061002211462069FFF73CFFEA
:1032D00001202075BDE8F081450100085501000876
:1032E00057010008801A060070B505462C460A48AA
:1032F0002860207D58B1606800F059F9A06800F09E
:1033000056F9E06800F053F9206900F050F900BF69
:103310002546284670BD0000FC3600082DE9FC4714
:1033200081460F4690464649D9F80000084430B11E
:10333000B0F5806F05D0B0F5006F06D103E0002630
:1033400003E0012601E0022600BF00BFB7F5807F41
:1033500043D012DC102F34D008DC012F25D0022FEF
:1033600026D0042F27D0082F56D127E0202F2BD08E
:10337000402F2CD0802F4FD12CE0B7F5805F3BD071
:1033800009DCB7F5007F2BD0B7F5806F2CD0B7F5EF
:10339000006F41D12CE0B7F5005F31D0B7F5804F19
:1033A00032D0B7F5004F37D132E00024012533E0A9
:1033B0000124022530E0022404252DE00324082501
:1033C0002AE00424102527E00524202524E00624F3
:1033D000402521E0072480251EE0082465011BE02C
:1033E00009244FF4007517E00A244FF4806513E0B8
:1033F0000B244FF400650FE00C244FF480550BE0D4
:103400000D244FF4005507E00E244FF4804503E0EF
:103410000F244FF4004500BF00BF21463046FDF7A2
:103420006DFE009500208DF804008DF805800120C8
:103430008DF806006846FDF76BFCBDE8FC870000D0
:1034400000F8FEBF2DE9F84380460D4616461F469C
:10345000B5F5807F38D012DC102D30D008DC012D7E
:1034600025D0022D25D0042D25D0082D36D124E0DD
:10347000202D26D0402D25D0802D2FD123E0B5F54D
:10348000805F26D009DCB5F5007F1ED0B5F5806FD2
:103490001DD0B5F5006F21D11AE0B5F5005F19D048
:1034A000B5F5804F17D0B5F5004F17D114E00624BD
:1034B00014E0072412E0082410E009240EE00A2496
:1034C0000CE000BF00BF00BF00BF172406E000BF34
:1034D00000BF00BF00BF00BF282400BF00BFE0B294
:1034E0008DF80000F0B28DF80100F8B28DF80200FE
:1034F00001208DF803006846FDF793FBBDE8F883D3
:1035000070B504460D4629462068FDF78EFD70BD56
:103510002DE9F84F04460E4617461D46DDE90AAB75
:10352000A8464FF000091C492068084430B1B0F5A6
:10353000806F06D0B0F5006F09D105E04FF00409A7
:1035400005E04FF0080902E04FF0100900BF00BF8E
:10355000B8F1000F01D049F0010901214846FEF7FA
:1035600075F900BFADF800608DF8037003208DF889
:10357000020069462068FDF7ABFC55B15B46524638
:1035800031462046FFF75EFF314620460C9AFFF792
:10359000C5FEBDE8F88F000000F8FEBF70B5044618
:1035A0000D4629462068FDF742FD70BD704710B5F5
:1035B00000F042F810BD000010B5040007D101244E
:1035C00005E0FFF71DFD006800B90448804720466C
:1035D00000F05AF80028F4D010BD0000F32F0008C6
:1035E000014A024900F016B8452E00085800002094
:1035F0000020FFF70FBD02E008C8121F08C1002A13
:10360000FAD170477047002001E001C1121F002A63
:10361000FBD170472DE9F04116460F4604460025C0
:1036200003E03946B047641C6D1C20780028F8D1AF
:103630002846BDE8F081000010B5002821D0114BCC
:103640000022001F196803E0814203D80A46496836
:103650000029F9D152B11368841A9C4204D1006840
:1036600018441060104602E0506000E0186039B164
:1036700002680B1A934203D10B681A44026049682E
:10368000416010BD6C000020F0B50B30154D20F0EE
:1036900007010024144A0FE003688B420BD38B42CE
:1036A00005D95E1A43184768C3E9006700E043681C
:1036B000136002C004E0021D10680028ECD120460F
:1036C000002802D1286808B10020F0BD064A07484A
:1036D0001060074A121A22F00702C0E900240120F4
:1036E0002860D7E7700000206C00002094000020C4
:1036F000900200200000000000000000F1350008EA
:10370000F1350008F135000800000000000000005D
:103710008D0100088B0100088F0100084437000864
:103720000000002074000000F6350008B8370008DB
:10373000740000201C0600000636000863F7FFFF37
:1037400029F8FFFF00A24A0400000000000000006A
:103750000102030406070809000000000000000041
:103760000000000000000000000000000000000059
:103770000000000000000000000000000000000049
:103780000000000001020304010203040607080907
:103790000204060800000000000000000000000015
:1037A0000000000000000000000000000000000019
:0837B000000000000000000011
:04000005080000ED02
:00000001FF
